:020000040800F2
:100000000050002015120008890300088B03000827
:100010008D0300088F030008910300080000000012
:100020000000000000000000000000009303000832
:1000300095030008000000009703000899030008DA
:100040005D1200085D1200085D1200085D120008D4
:100050005D1200085D1200085D1200085D120008C4
:100060005D1200085D1200085D1200085D120008B4
:100070005D1200085D1200085D1200085D120008A4
:100080005D1200085D1200085D1200085D12000894
:100090005D1200085D1200085D1200085D12000884
:1000A0005D1200085D1200085D1200085D12000874
:1000B0005D1200085D1200085D1200085D12000864
:1000C0005D1200085D1200085D1200085D12000854
:1000D0005D1200085D1200085D1200085D12000844
:1000E0005D1200085D1200085D12000800000000AB
:1000F0000000000000000000000000000000000000
:0C01000000000000000000005FF808F1A3
:10010C0010B5054C237833B9044B13B10448AFF345
:10011C0000800123237010BD0C00002000000000A3
:10012C00B812000808B5034B1BB103490348AFF3E1
:10013C00008008BD0000000010000020B81200086C
:10014C0082B00A4B9A6942F004029A619A6902F0F1
:10015C0004020092009A9A6942F008029A619B6923
:10016C0003F008030193019B02B07047001002409A
:10017C0070B584B000250195029503950B4C0C4B82
:10018C002360A560257325754FF46023E3616560DA
:10019C0001262661204600F02DFA01960296039561
:1001AC0001A9204600F064F904B070BD5000002095
:1001BC000024014008B50948094B03601023436033
:1001CC0000238360C36003614361037643768376C7
:1001DC00C3760377437700F095FA08BD280000201A
:1001EC000064004030B595B0202200210BA801F02E
:1001FC0055F80024059406940794089409940194E6
:10020C0002940394049402250A9501230E9310235F
:10021C000F9311954FF4601313930AA800F076FC1A
:10022C000F230593069507944FF480630893099464
:10023C00294605A800F0AAFE01954FF4004303934C
:10024C0001A800F057FF15B030BD08B500F0ECF870
:10025C00FFF7C8FFFFF774FFFFF78AFFFFF7AAFF4E
:10026C00FEE7000082B00D4B9A6942F001029A61E0
:10027C009A6902F001020092009ADA6942F0805207
:10028C00DA61DB6903F080530193019B044A5368E4
:10029C0023F0E063536002B0704700BF00100240CF
:1002AC000000014000B587B0002302930393049330
:1002BC0005930268114B9A4202D007B05DF804FB1B
:1002CC0003F56C439A6942F400729A619A6902F4DC
:1002DC0000720092009A9A6942F004029A619B693A
:1002EC0003F004030193019B022302930323039362
:1002FC0002A9034800F008FBDFE700BF002401401F
:10030C000008014030B587B0002302930393049397
:10031C0005930268174B9A4201D007B030BD03F524
:10032C00D633DA6942F00072DA61DA6902F00072EF
:10033C000092009A9A6942F004029A619B6903F058
:10034C0004030193019B06AC4FF4006344F8103D89
:10035C00094D2146284600F0D7FA4FF480530293FA
:10036C0002230393032305932146284600F0CCFA7D
:10037C00D3E700BF00640040000801407047FEE76F
:10038C00FEE7FEE7FEE770477047704708B500F0E0
:10039C005DF808BD0F4B1A6842F001021A605968EB
:1003AC000D4A0A405A601A6822F0847222F4803294
:1003BC001A601A6822F480221A605A6822F4FE022B
:1003CC005A604FF41F029A60044B4FF000629A601F
:1003DC00704700BF001002400000FFF800ED00E085
:1003EC0010B504460E4B18784FF47A73B3FBF0F348
:1003FC000C4A1068B0FBF3F000F070FA68B90F2CDF
:10040C0001D901200AE0002221464FF0FF3000F014
:10041C0031FA034B5C60002000E0012010BD00BFEE
:10042C00040000200000002008B5074A136843F0C0
:10043C0010031360032000F00BFA0020FFF7D0FF2D
:10044C00FFF710FF002008BD00200240034A11688E
:10045C00034B1B780B441360704700BF80000020D7
:10046C0004000020014B1868704700BF800000207A
:10047C0030B482B00023019390F82430012B00F0AB
:10048C008B800246012380F824304B68062B29D838
:10049C000568686B03EB8303053B1F249C4020EA33
:1004AC0004000C6804FA03F303436B630B68092B19
:1004BC0038D91568E86803EB43031E3B07249C40BE
:1004CC0020EA04008C6804FA03F30343EB600B6826
:1004DC00103B012B34D90020002382F8243002B0C9
:1004EC0030BC70470C2B0ED80568286B03EB8303CC
:1004FC00233B1F249C4020EA04000C6804FA03F3FD
:10050C0003432B63D2E70568E86A03EB8303413BA3
:10051C001F249C4020EA04000C6804FA03F30343F4
:10052C00EB62C3E71568286903EB430307249C407F
:10053C0020EA04008C6804FA03F303432B61C6E73A
:10054C0013681648834205D0936A43F020039362E4
:10055C000120C1E7986810F4000F1BD1986840F493
:10056C00000098600B68102B01D00020B4E70C4BF6
:10057C001B680C49A1FB03139B0C03EB8303590071
:10058C00019102E0019B013B0193019B002BF9D1EE
:10059C000020A1E700209FE70220A0E700240140F3
:1005AC000000002083DE1B4338B503689A6812F004
:1005BC00010F01D1002038BD04469A6822F00102D7
:1005CC009A60FFF74FFF054623689B6813F0010FF5
:1005DC000ED0FFF747FF401B0228F5D9A36A43F062
:1005EC001003A362E36A43F00103E3620120E2E734
:1005FC000020E0E700287FD038B50446836A002B42
:10060C0033D02046FFF7D0FFA36A13F010036DD14F
:10061C0000286BD1A26A22F4885222F0020242F026
:10062C000202A2626268E1690A43257B42EA450242
:10063C00A168B1F5807F21D001291CD0217D012931
:10064C001FD02568696821F469410B436B602168F0
:10065C008D682A4B2B4013438B60A368B3F5807FC6
:10066C0020D0012B1ED000211FE0C36280F8243063
:10067C00FFF718FEC5E74FF48073DFE74FF4807384
:10068C00DCE735B9A169013943EA413343F400632E
:10069C00D7E7A16A41F02001A162E16A41F00101B2
:1006AC00E162CEE72369013B19052568EB6A23F467
:1006BC0070030B43EB6223689968114B0B409A4211
:1006CC000BD0A36A23F0120343F01003A362E36A76
:1006DC0043F00103E36201200DE00023E362A36A0F
:1006EC0023F0030343F00103A36204E0A36A43F085
:1006FC001003A362012038BD01207047FDF7E1FF14
:10070C00FE0E1FFF002800F0A18038B5044690F8BB
:10071C002030D3B12268136823F002031360FFF773
:10072C00A1FE054623685A6812F0020F10D0FFF79D
:10073C0099FE401B0A28F5D9636A43F400336362BF
:10074C00052384F82030012038BDFFF7DBFDE1E7FD
:10075C001A6842F001021A60FFF784FE054623680E
:10076C005A6812F0010F0DD1FFF77CFE401B0A28CE
:10077C00F5D9636A43F400336362052384F82030AF
:10078C000120E1E7227E012A3DD01A6822F0800286
:10079C001A60637E012B3BD02268136823F0400360
:1007AC001360A37E012B39D02268136823F0200339
:1007BC001360E37E012B37D02268136843F01003DB
:1007CC001360237F012B35D02268136823F00803B4
:1007DC001360637F012B33D02268136823F004036A
:1007EC001360A368E26813432269134362691343DD
:1007FC006268013A21681343CB61002060620123D7
:10080C0084F82030A0E71A6842F080021A60C0E732
:10081C002268136843F040031360C2E72268136830
:10082C0043F020031360C4E72268136823F010031D
:10083C001360C6E72268136843F008031360C8E727
:10084C002268136843F004031360CAE70120704761
:10085C00074AD36823F4E0631B041B0C000200F46A
:10086C00E060184340F0BF6040F40030D060704747
:10087C0000ED00E030B4174BDB68C3F30223C3F187
:10088C000704042C28BF04241D1D062D18D9033B76
:10089C004FF0FF3505FA04F421EA0401994005FAFA
:1008AC0003F322EA0303194300280BDB0901C9B245
:1008BC0000F1604000F5614080F8001330BC7047D7
:1008CC000023E5E700F00F000901C9B2024B1954EF
:1008DC00F4E700BF00ED00E014ED00E00138B0F1EA
:1008EC00807F0AD2064B5860064AF02182F823100A
:1008FC000020986007221A6070470120704700BFE3
:10090C0010E000E000ED00E0F0B482B000263246CA
:10091C00A2E0002D5AD0012D00D1CE68FF2B69D852
:10092C008446FF2B69D89500DCF800400F27AF40B8
:10093C0024EA070406FA05F52C43CCF800404C6871
:10094C0014F0805F00F087805F4CA56945F00105CD
:10095C00A561A46904F001040194019C9508AF1CE5
:10096C005A4C54F8274002F00307BF004FF00F0C0D
:10097C000CFA07FC24EA0C0C554CA04243D004F5AD
:10098C008064A04200F0818004F58064A0427ED097
:10099C0004F58064A04234D0042435E04D4FBD42B0
:1009AC0014D00BD94C4FBD4210D007F58037BD4247
:1009BC000CD0A7F58017BD42B0D107E0A7F5801782
:1009CC00BD4203D007F58037BD42A7D18D687DB1FC
:1009DC00012D08D044610826A0E7CE6808369DE7B3
:1009EC00CE680C369AE70461082697E7002695E74F
:1009FC00042693E700F1040C93E7A2F10805AD007F
:100A0C0092E7032400E00024BC4044EA0C040235C5
:100A1C002E4F47F825404C6814F4803F39D02F4DA9
:100A2C002C681C432C604C6814F4003F37D02B4DC1
:100A3C006C681C436C604C6814F4801F35D0274DD7
:100A4C00AC681C43AC604C6814F4001F33D0234DCD
:100A5C00EC682343EB6001320B6833FA02F430D0BC
:100A6C000124944023409C42F5D14D68122DB7D0FF
:100A7C0094D8022DB1D07FF64CAF032DB6D0112DEA
:100A8C007FF44CAFCE68043648E70124BCE702245F
:100A9C00BAE7124D2C6824EA03042C60C3E70F4D0F
:100AAC006C6824EA03046C60C5E70C4DAC6824EA5E
:100ABC000304AC60C7E7094DEC6824EA0303EB6060
:100ACC00C9E702B0F0BC70470010024000000140C2
:100ADC00000801400000211000003110000401400A
:100AEC0082B0084B1B68084AA2FB03235B0A00FB7D
:100AFC0003F0019000BF019B5A1E0192002BF9D10B
:100B0C0002B0704700000020D34D6210002800F0A6
:100B1C00F58170B582B00446036813F0010F2CD038
:100B2C00AB4B5B6803F00C03042B1DD0A84B5B682C
:100B3C0003F00C03082B12D06368B3F5803F41D04F
:100B4C00002B55D103F1804303F504331A6822F4CA
:100B5C0080321A601A6822F480221A6037E09C4BAB
:100B6C005B6813F4803FE7D0994B1B6813F4003F8C
:100B7C0003D06368002B00F0C381236813F0020FCD
:100B8C0076D0934B5B6813F00C0F5FD0904B5B6887
:100B9C0003F00C03082B54D02369002B00F08A803F
:100BAC008C4B01221A60FFF75DFC0546884B1B68D5
:100BBC0013F0020F75D1FFF755FC401B0228F5D935
:100BCC000320A0E1824A136843F480331360636806
:100BDC0043B3FFF747FC05467D4B1B6813F4003FFE
:100BEC00CBD1FFF73FFC401B6428F5D903208AE1E9
:100BFC00B3F5A02F09D0764B1A6822F480321A6014
:100C0C001A6822F480221A60E1E703F18043A3F50D
:100C1C003C331A6842F480221A601A6842F480321B
:100C2C001A60D4E7FFF71EFC0546694B1B6813F4EA
:100C3C00003FA2D0FFF716FC401B6428F5D9032017
:100C4C0061E1634B5B6813F4803FA5D1604B1B687B
:100C5C0013F0020F04D02369012B01D0012052E1C3
:100C6C005B4A136823F0F803616943EAC10313601C
:100C7C00236813F0080F32D0A369002B5BD0564BBE
:100C8C0001221A60FFF7EEFB0546514B5B6A13F02D
:100C9C00020F21D1FFF7E6FB401B0228F5D90320F8
:100CAC0031E14B4A136823F0F803616943EAC1034D
:100CBC001360DDE7474B00221A60FFF7D3FB0546B4
:100CCC00434B1B6813F0020FD2D0FFF7CBFB401B3A
:100CDC000228F5D9032016E10120FFF701FF236854
:100CEC0013F0040F00F09880394BDB6913F0805F30
:100CFC0033D1374BDA6942F08052DA61DB6903F0A9
:100D0C0080530193019B0125344B1B6813F4807FA6
:100D1C0025D0E368012B36D0002B4CD103F1804356
:100D2C0003F504331A6A22F001021A621A6A22F0DD
:100D3C0004021A622CE0284B00221A60FFF792FB87
:100D4C000546234B5B6A13F0020FC8D0FFF78AFBF2
:100D5C00401B0228F5D90320D5E00025D4E71F4A13
:100D6C00136843F480731360FFF77CFB06461B4B40
:100D7C001B6813F4807FCCD1FFF774FB801B6428B5
:100D8C00F5D90320BFE0124A136A43F00103136242
:100D9C00E3687BB3FFF766FB06460D4B1B6A13F04B
:100DAC00020F38D1FFF75EFB801B41F2883398426B
:100DBC00F3D90320A7E0052B12D0054B1A6A22F0B9
:100DCC0001021A621A6A22F004021A62E0E700BFFA
:100DDC000010024000004242800442420070004079
:100DEC004C4B1A6A42F004021A621A6A42F001026F
:100DFC001A62CDE7FFF736FB0646464B1B6A13F02B
:100E0C00020F08D0FFF72EFB801B41F2883398426B
:100E1C00F3D9032077E0E5B9E369002B72D03D4AA2
:100E2C00526802F00C02082A56D0022B17D03A4B0B
:100E3C0000221A60FFF716FB0446364B1B6813F0B2
:100E4C00007F47D0FFF70EFB001B0228F5D90320CB
:100E5C0059E0304AD36923F08053D361DCE72E4B41
:100E6C0000221A60FFF7FEFA05462A4B1B6813F0A6
:100E7C00007F06D0FFF7F6FA401B0228F5D90320B5
:100E8C0041E0236AB3F5803F1AD022494B6823F422
:100E9C007413226A606A024313434B601E4B012297
:100EAC001A60FFF7DFFA04461A4B1B6813F0007F39
:100EBC000ED1FFF7D7FA001B0228F5D9032022E048
:100ECC00144A536823F40033A1680B435360DCE7E6
:100EDC00002018E0002016E0012B16D00D4B5B68AB
:100EEC0003F48031226A914201D001200BE003F41B
:100EFC007013626A93420AD0012004E0012070470B
:100F0C00012000E0002002B070BD0120FBE70020B2
:100F1C00F9E700BF001002406000424210B487B0F5
:100F2C00164C94E80F000DF1180C0CE90F00238AF5
:100F3C00ADF80430124B5B6803F00C02082A1AD18E
:100F4C00C3F38342624412F8102C13F4803F05D192
:100F5C000C4800FB02F007B010BC7047084B5B68F4
:100F6C00C3F34043634413F8143C074800FB02F0FE
:100F7C00B0FBF3F0EFE70448EDE700BFE812000820
:100F8C000010024000093D0000127A00002800F019
:100F9C00A38070B50446524B1B6803F007038B42C9
:100FAC000CD24F4A136823F007030B4313601368EA
:100FBC0003F007038B4201D0012070BD236813F0AE
:100FCC00020F17D013F0040F04D0464A536843F4B1
:100FDC00E0635360236813F0080F04D0414A536850
:100FEC0043F4605353603F4A536823F0F003A06806
:100FFC00034353600D46236813F0010F31D063682F
:10100C00012B20D0022B25D0364A126812F0020F89
:10101C0064D034494A6822F0030213434B60FFF753
:10102C0021FA06462F4B5B6803F00C036268B3EBA6
:10103C00820F16D0FFF716FA801B41F288339842C4
:10104C00F0D90320B9E7274A126812F4003FE0D127
:10105C000120B2E7234A126812F0007FD9D1012097
:10106C00ABE71F4B1B6803F00703AB420CD91C4AC0
:10107C00136823F007032B431360136803F0070373
:10108C00AB4201D0012098E7236813F0040F06D07F
:10109C00144A536823F4E063E1680B4353602368FC
:1010AC0013F0080F07D00F4A536823F460532169DB
:1010BC0043EAC1035360FFF731FF0A4B5B68C3F38C
:1010CC000313094AD35CD840084B1860084B1868C6
:1010DC00FFF786F9002070E70120704701206CE7CC
:1010EC000020024000100240D01200080000002036
:1010FC000800002070B582B00446036813F0010F9D
:10110C0034D03E4BDB6913F0805F48D13B4BDA693E
:10111C0042F08052DA61DB6903F080530193019B4A
:10112C000125374B1B6813F4807F3AD0334B1B6A75
:10113C0013F4407311D0626802F440729A420CD0DE
:10114C002E4A136A23F440702E4901260E600026A5
:10115C000E60106213F0010F37D1284A136A23F482
:10116C00407361680B431362002D3FD1236813F069
:10117C00020F06D0214A536823F44043A1680B4365
:10118C005360236813F0100F35D01C4A536823F4B6
:10119C008003E1680B435360002002B070BD002552
:1011AC00BFE7174A136843F480731360FFF75AF9CB
:1011BC000646134B1B6813F4807FB7D1FFF752F927
:1011CC00801B6428F5D90320E7E7FFF74BF90646A7
:1011DC000A4B1B6A13F0020FBFD1FFF743F9801BB8
:1011EC0041F288339842F3D90320D6E7D36923F030
:1011FC008053D361BAE70020CFE700BF0010024054
:10120C000070004040044242002103E00B4B5B584D
:10121C00435004310A480B4B42189A42F6D30A4AFF
:10122C0002E0002342F8043B084B9A42F9D3FFF743
:10123C00B1F800F00FF8FFF708F870470413000836
:10124C00000000200C0000200C0000208400002076
:10125C00FEE7000070B500250C4E0D4CA41BA4102D
:10126C00A54209D100F022F800250A4E0A4CA41B15
:10127C00A410A54205D170BD56F82530984701350C
:10128C00EEE756F8253098470135F2E7FC120008D6
:10129C00FC120008FC12000800130008034602446C
:1012AC00934200D1704703F8011BF9E7F8B500BF72
:1012BC00F8BC08BC9E467047F8B500BFF8BC08BC2B
:0412CC009E46704783
:1012D00000000000000000000102030406070809E6
:1012E00000000000010203040203040506070809C8
:0C12F0000A0B0C0D0E0F10100102000084
:0412FC0031010008B4
:041300000D010008D3
:0C1304000024F4000100000010000000B4
:0400000508001215C8
:00000001FF
