:020000040800F2
:1000000000500020CD310008190500081B0500082C
:100010001D0500081F05000821050008000000005C
:10002000000000000000000000000000512D00084A
:100030002305000800000000F12D0008352E0008FF
:100040001532000815320008153200081532000874
:100050001532000815320008153200081532000864
:100060001532000815320008153200081532000854
:100070001532000815320008153200081532000844
:100080001532000815320008153200081532000834
:100090001532000815320008153200081532000824
:1000A0001532000825050008153200081532000831
:1000B0001532000815320008153200081532000804
:1000C00015320008153200081532000815320008F4
:1000D00015320008153200081532000815320008E4
:1000E0001532000815320008153200080000000023
:1000F0000000000000000000000000000000000000
:0C01000000000000000000005FF808F1A3
:1001100010B5054C237833B9044B13B10448AFF341
:1001200000800123237010BD10000020000000009B
:100130008832000808B5034B1BB103490348AFF3ED
:10014000008008BD00000000140000208832000874
:1001500082B00A4B9A6942F004029A619A6902F0ED
:1001600004020092009A9A6942F008029A619B691F
:1001700003F008030193019B02B070470010024096
:1001800070B584B000250195029503950B4C0C4B7E
:100190002360A560257325754FF46023E3616560D6
:1001A00001262661204600F0D1FA019602960395B9
:1001B00001A9204600F008FA04B070BD5C190020C7
:1001C0000024014008B50948094B0360102343602F
:1001D00000238360C36003614361037643768376C3
:1001E000C3760377437700F039FB08BD341900204C
:1001F0000064004008B5012001F0C4FAFBE708B52F
:10020000012001F0BFFAFBE708B5012001F0BAFABE
:10021000FBE708B5012001F0B5FAFBE730B595B072
:10022000202200210BA803F026F800240594069450
:100230000794089409940194029403940494022569
:100240000A9501230E9310230F9311954FF4601319
:1002500013930AA800F0FEFC0F230593069507945C
:100260004FF4806308930994294605A800F032FFF3
:1002700001954FF40043039301A801F013F815B062
:1002800030BD000000B5A5B000F07AF9FFF7C6FF59
:10029000FFF75EFFFFF774FFFFF794FF01F0B6F979
:1002A0002024224600211CA802F0E5FF204B1B93CE
:1002B00080252095182621961BAA00211D4801F0B3
:1002C000EDF91D4B18602246002113A802F0D3FF60
:1002D0001A4B12931795189412AA0021184801F08E
:1002E000DDF9184B1860224600210AA802F0C3FF6E
:1002F000154B09930E950F9609AA0021134801F09A
:10030000CDF9134B18602246002101A802F0B3FF7B
:10031000104B00930595082306936A4600210E486A
:1003200001F0BCF90D4B186001F092F9FEE700BF37
:10033000CC320008F501000830190020D83200083E
:10034000FF01000890190020DC32000809020008B3
:1003500094190020E8320008130200088C190020CC
:1003600008B50268034B9A4200D008BD00F01AF9A4
:10037000FBE700BF002C014000B583B0104B9A6929
:1003800042F001029A619A6902F001020092009A19
:10039000DA6942F08052DA61DB6903F0805301933D
:1003A000019B00220F216FF0010000F00FFB054AB6
:1003B000536823F0E063536003B05DF804FB00BFB3
:1003C000001002400000014000B587B000230293F6
:1003D0000393049305930268114B9A4202D007B02D
:1003E0005DF804FB03F56C439A6942F400729A616C
:1003F0009A6902F400720092009A9A6942F004022B
:100400009A619B6903F004030193019B0223029309
:100410000323039302A9034800F01AFBDFE700BFA0
:10042000002401400008014030B587B0002302934A
:100430000393049305930268174B9A4201D007B0C7
:1004400030BD03F5D633DA6942F00072DA61DA6959
:1004500002F000720092009A9A6942F004029A61D6
:100460009B6903F004030193019B06AC4FF4006306
:1004700044F8103D094D2146284600F0E9FA4FF4B2
:1004800080530293022303930323059321462846B6
:1004900000F0DEFAD3E700BF00640040000801402E
:1004A00000B589B000220146192000F08FFA19200A
:1004B00000F0C0FA144B9A6942F400629A619B6999
:1004C00003F400630193019B02A903A800F0CCFE92
:1004D00000F0BAFE0D4BA3FB00239B0C013B0C4824
:1004E0000C4A026040F2E732C260436000230361BD
:1004F000836001F06FF818B1012009B05DF804FBCA
:10050000034800F05AFFF8E70010024083DE1B4367
:1005100098190020002C01407047FEE7FEE7FEE737
:10052000FEE7704708B5024800F05CFF08BD00BF59
:10053000981900200F4B1A6842F001021A6059689E
:100540000D4A0A405A601A6822F0847222F48032FE
:100550001A601A6822F480221A605A6822F4FE0295
:100560005A604FF41F029A60044B4FF000629A6089
:10057000704700BF001002400000FFF800ED00E0EF
:1005800008B5074A136843F010031360032000F016
:100590000BFA0020FFF784FFFFF7EEFE002008BDF6
:1005A00000200240034A1168034B1B780B44136080
:1005B000704700BFD819002004000020014B1868C4
:1005C000704700BFD819002030B482B000230193D7
:1005D00090F82430012B00F08B800246012380F834
:1005E00024304B68062B29D80568686B03EB83031E
:1005F000053B1F249C4020EA04000C6804FA03F326
:1006000003436B630B68092B38D91568E86803EB63
:1006100043031E3B07249C4020EA04008C6804FA34
:1006200003F30343EB600B68103B012B34D900202C
:10063000002382F8243002B030BC70470C2B0ED857
:100640000568286B03EB8303233B1F249C4020EAAF
:1006500004000C6804FA03F303432B63D2E7056834
:10066000E86A03EB8303413B1F249C4020EA04001B
:100670000C6804FA03F30343EB62C3E715682869C7
:1006800003EB430307249C4020EA04008C6804FA2F
:1006900003F303432B61C6E713681648834205D072
:1006A000936A43F0200393620120C1E7986810F435
:1006B000000F1BD1986840F4000098600B68102B65
:1006C00001D00020B4E70C4B1B680C49A1FB0313BD
:1006D0009B0C03EB83035900019102E0019B013B5A
:1006E0000193019B002BF9D10020A1E700209FE797
:1006F0000220A0E7002401400000002083DE1B430D
:1007000038B503689A6812F0010F01D1002038BD96
:1007100004469A6822F001029A60FFF74FFF0546EF
:1007200023689B6813F0010F0ED0FFF747FF401BB3
:100730000228F5D9A36A43F01003A362E36A43F0E9
:100740000103E3620120E2E70020E0E700287FD018
:1007500038B50446836A002B33D02046FFF7D0FF1C
:10076000A36A13F010036DD100286BD1A26A22F4A2
:10077000885222F0020242F00202A2626268E1693B
:100780000A43257B42EA4502A168B1F5807F21D06A
:1007900001291CD0217D01291FD02568696821F419
:1007A00069410B436B6021688D682A4B2B401343D2
:1007B0008B60A368B3F5807F20D0012B1ED0002171
:1007C0001FE0C36280F82430FFF7FEFDC5E74FF459
:1007D0008073DFE74FF48073DCE735B9A169013935
:1007E00043EA413343F40063D7E7A16A41F02001B3
:1007F000A162E16A41F00101E162CEE72369013BB8
:1008000019052568EB6A23F470030B43EB62236838
:100810009968114B0B409A420BD0A36A23F0120344
:1008200043F01003A362E36A43F00103E362012093
:100830000DE00023E362A36A23F0030343F0010306
:10084000A36204E0A36A43F01003A362012038BD51
:1008500001207047FDF7E1FFFE0E1FFF002800F0AA
:10086000A18038B5044690F82030D3B122681368CF
:1008700023F002031360FFF7A1FE054623685A68C0
:1008800012F0020F10D0FFF799FE401B0A28F5D98D
:10089000636A43F400336362052384F82030012047
:1008A00038BDFFF7C1FDE1E71A6842F001021A60A6
:1008B000FFF784FE054623685A6812F0010F0DD138
:1008C000FFF77CFE401B0A28F5D9636A43F4003326
:1008D0006362052384F820300120E1E7227E012AAB
:1008E0003DD01A6822F080021A60637E012B3BD053
:1008F0002268136823F040031360A37E012B39D0D4
:100900002268136823F020031360E37E012B37D0A5
:100910002268136843F010031360237F012B35D046
:100920002268136823F008031360637F012B33D020
:100930002268136823F004031360A368E26813437A
:1009400022691343626913436268013A21681343C1
:10095000CB6100206062012384F82030A0E71A6890
:1009600042F080021A60C0E72268136843F0400337
:100970001360C2E72268136843F020031360C4E7E2
:100980002268136823F010031360C6E72268136817
:1009900043F008031360C8E72268136843F00403B8
:1009A0001360CAE701207047074AD36823F4E06365
:1009B0001B041B0C000200F4E060184340F0BF6011
:1009C00040F40030D060704700ED00E030B4174BC9
:1009D000DB68C3F30223C3F10704042C28BF0424FB
:1009E0001D1D062D18D9033B4FF0FF3505FA04F401
:1009F00021EA0401994005FA03F322EA03031943AB
:100A000000280BDB0901C9B200F1604000F561402C
:100A100080F8001330BC70470023E5E700F00F00BA
:100A20000901C9B2024B1954F4E700BF00ED00E020
:100A300014ED00E0002807DB00F01F02400901234D
:100A40009340024A42F82030704700BF00E100E0C6
:100A5000F0B482B000263246A2E0002D5AD0012D1B
:100A600000D1CE68FF2B69D88446FF2B69D895004A
:100A7000DCF800400F27AF4024EA070406FA05F52A
:100A80002C43CCF800404C6814F0805F00F0878065
:100A90005F4CA56945F00105A561A46904F0010456
:100AA0000194019C9508AF1C5A4C54F8274002F061
:100AB0000307BF004FF00F0C0CFA07FC24EA0C0CE4
:100AC000554CA04243D004F58064A04200F08180E0
:100AD00004F58064A0427ED004F58064A04234D046
:100AE000042435E04D4FBD4214D00BD94C4FBD42CC
:100AF00010D007F58037BD420CD0A7F58017BD4256
:100B0000B0D107E0A7F58017BD4203D007F58037C5
:100B1000BD42A7D18D687DB1012D08D04461082662
:100B2000A0E7CE6808369DE7CE680C369AE70461E8
:100B3000082697E7002695E7042693E700F1040CC2
:100B400093E7A2F10805AD0092E7032400E000243A
:100B5000BC4044EA0C0402352E4F47F825404C684F
:100B600014F4803F39D02F4D2C681C432C604C6806
:100B700014F4003F37D02B4D6C681C436C604C68FC
:100B800014F4801F35D0274DAC681C43AC604C6812
:100B900014F4001F33D0234DEC682343EB60013283
:100BA0000B6833FA02F430D00124944023409C4275
:100BB000F5D14D68122DB7D094D8022DB1D07FF663
:100BC0004CAF032DB6D0112D7FF44CAFCE68043658
:100BD00048E70124BCE70224BAE7124D2C6824EA56
:100BE00003042C60C3E70F4D6C6824EA03046C60B7
:100BF000C5E70C4DAC6824EA0304AC60C7E7094DB7
:100C0000EC6824EA0303EB60C9E702B0F0BC70476C
:100C100000100240000001400008014000002110C7
:100C2000000031100004014082B0084B1B68084AE4
:100C3000A2FB03235B0A00FB03F0019000BF019BB2
:100C40005A1E0192002BF9D102B07047000000201B
:100C5000D34D6210002800F0F58170B582B00446D3
:100C6000036813F0010F2CD0AB4B5B6803F00C034F
:100C7000042B1DD0A84B5B6803F00C03082B12D08B
:100C80006368B3F5803F41D0002B55D103F1804319
:100C900003F504331A6822F480321A601A6822F4C9
:100CA00080221A6037E09C4B5B6813F4803FE7D0EA
:100CB000994B1B6813F4003F03D06368002B00F0CE
:100CC000C381236813F0020F76D0934B5B6813F057
:100CD0000C0F5FD0904B5B6803F00C03082B54D0D3
:100CE0002369002B00F08A808C4B01221A60FFF7E9
:100CF00065FC0546884B1B6813F0020F75D1FFF7A2
:100D00005DFC401B0228F5D90320A0E1824A13684C
:100D100043F480331360636843B3FFF74FFC054629
:100D20007D4B1B6813F4003FCBD1FFF747FC401B02
:100D30006428F5D903208AE1B3F5A02F09D0764BBA
:100D40001A6822F480321A601A6822F480221A602B
:100D5000E1E703F18043A3F53C331A6842F48022B3
:100D60001A601A6842F480321A60D4E7FFF726FC52
:100D70000546694B1B6813F4003FA2D0FFF71EFC29
:100D8000401B6428F5D9032061E1634B5B6813F4D1
:100D9000803FA5D1604B1B6813F0020F04D023697C
:100DA000012B01D0012052E15B4A136823F0F803C4
:100DB000616943EAC1031360236813F0080F32D05E
:100DC000A369002B5BD0564B01221A60FFF7F6FB9C
:100DD0000546514B5B6A13F0020F21D1FFF7EEFB82
:100DE000401B0228F5D9032031E14B4A136823F058
:100DF000F803616943EAC1031360DDE7474B002252
:100E00001A60FFF7DBFB0546434B1B6813F0020F2C
:100E1000D2D0FFF7D3FB401B0228F5D9032016E1FF
:100E20000120FFF701FF236813F0040F00F0988002
:100E3000394BDB6913F0805F33D1374BDA6942F00D
:100E40008052DA61DB6903F080530193019B012535
:100E5000344B1B6813F4807F25D0E368012B36D018
:100E6000002B4CD103F1804303F504331A6A22F0BE
:100E700001021A621A6A22F004021A622CE0284B5C
:100E800000221A60FFF79AFB0546234B5B6A13F0BA
:100E9000020FC8D0FFF792FB401B0228F5D90320B0
:100EA000D5E00025D4E71F4A136843F4807313602C
:100EB000FFF784FB06461B4B1B6813F4807FCCD1E5
:100EC000FFF77CFB801B6428F5D90320BFE0124AA2
:100ED000136A43F001031362E3687BB3FFF76EFB11
:100EE00006460D4B1B6A13F0020F38D1FFF766FB65
:100EF000801B41F288339842F3D90320A7E0052BE9
:100F000012D0054B1A6A22F001021A621A6A22F004
:100F100004021A62E0E700BF0010024000004242F3
:100F200080044242007000404C4B1A6A42F00402B6
:100F30001A621A6A42F001021A62CDE7FFF73EFB1D
:100F40000646464B1B6A13F0020F08D0FFF736FB2C
:100F5000801B41F288339842F3D9032077E0E5B94A
:100F6000E369002B72D03D4A526802F00C02082A55
:100F700056D0022B17D03A4B00221A60FFF71EFB07
:100F80000446364B1B6813F0007F47D0FFF716FB73
:100F9000001B0228F5D9032059E0304AD36923F019
:100FA0008053D361DCE72E4B00221A60FFF706FB6B
:100FB00005462A4B1B6813F0007F06D0FFF7FEFAA8
:100FC000401B0228F5D9032041E0236AB3F5803F96
:100FD0001AD022494B6823F47413226A606A0243D0
:100FE00013434B601E4B01221A60FFF7E7FA0446D9
:100FF0001A4B1B6813F0007F0ED1FFF7DFFA001BBE
:101000000228F5D9032022E0144A536823F4003360
:10101000A1680B435360DCE7002018E0002016E0D5
:10102000012B16D00D4B5B6803F48031226A91428C
:1010300001D001200BE003F47013626A93420AD0DE
:10104000012004E001207047012000E0002002B0F0
:1010500070BD0120FBE70020F9E700BF001002404F
:101060006000424210B487B0164C94E80F000DF1B6
:10107000180C0CE90F00238AADF80430124B5B68A2
:1010800003F00C02082A1AD1C3F38342624412F817
:10109000102C13F4803F05D10C4800FB02F007B080
:1010A00010BC7047084B5B68C3F34043634413F8BC
:1010B000143C074800FB02F0B0FBF3F0EFE70448F4
:1010C000EDE700BFB83200080010024000093D0003
:1010D00000127A00002800F0A38070B50446524B3D
:1010E0001B6803F007038B420CD24F4A136823F0AE
:1010F00007030B431360136803F007038B4201D00F
:10110000012070BD236813F0020F17D013F0040FF5
:1011100004D0464A536843F4E0635360236813F0F5
:10112000080F04D0414A536843F4605353603F4A68
:10113000536823F0F003A068034353600D4623680F
:1011400013F0010F31D06368012B20D0022B25D082
:10115000364A126812F0020F64D034494A6822F00D
:10116000030213434B60FFF729FA06462F4B5B68D7
:1011700003F00C036268B3EB820F16D0FFF71EFA80
:10118000801B41F288339842F0D90320B9E7274AFF
:10119000126812F4003FE0D10120B2E7234A12683E
:1011A00012F0007FD9D10120ABE71F4B1B6803F081
:1011B0000703AB420CD91C4A136823F007032B43E7
:1011C0001360136803F00703AB4201D0012098E7D6
:1011D000236813F0040F06D0144A536823F4E06325
:1011E000E1680B435360236813F0080F07D00F4AE0
:1011F000536823F46053216943EAC1035360FFF746
:1012000031FF0A4B5B68C3F30313094AD35CD84030
:10121000084B1860084B1868FFF742F9002070E788
:101220000120704701206CE70020024000100240BE
:10123000A03200080000002008000020014B1868C0
:10124000704700BF0000002008B5FFF7F7FF044B10
:101250005B68C3F3C223034AD35CD84008BD00BF18
:1012600000100240B03200080F2303600B4B5A6895
:1012700002F0030242605A6802F0F00282605A688B
:1012800002F4E062C2605B68DB0803F4E0630361C0
:10129000034B1B6803F007030B607047001002400C
:1012A0000020024070B582B00446036813F0010FBD
:1012B00034D03E4BDB6913F0805F48D13B4BDA6999
:1012C00042F08052DA61DB6903F080530193019BA5
:1012D0000125374B1B6813F4807F3AD0334B1B6AD0
:1012E00013F4407311D0626802F440729A420CD039
:1012F0002E4A136A23F440702E4901260E60002600
:101300000E60106213F0010F37D1284A136A23F4DC
:10131000407361680B431362002D3FD1236813F0C3
:10132000020F06D0214A536823F44043A1680B43BF
:101330005360236813F0100F35D01C4A536823F410
:101340008003E1680B435360002002B070BD0025AC
:10135000BFE7174A136843F480731360FFF72EF951
:101360000646134B1B6813F4807FB7D1FFF726F9AD
:10137000801B6428F5D90320E7E7FFF71FF906462D
:101380000A4B1B6A13F0020FBFD1FFF717F9801B3E
:1013900041F288339842F3D90320D6E7D36923F08A
:1013A0008053D361BAE70020CFE700BF00100240AE
:1013B000007000404004424270470268D36843F026
:1013C0000103D3600268936803F00703062B03D080
:1013D000136843F0010313600020704770477047A3
:1013E0007047704710B5044603681A6912F0020F7F
:1013F00011D0DA6812F0020F0DD06FF002021A61FC
:101400000123037703689B6913F0030F70D0FFF784
:10141000E6FF0023237723681A6912F0040F12D025
:10142000DA6812F0040F0ED06FF004021A61022382
:10143000237723689B6913F4407F5FD02046FFF732
:10144000CEFF0023237723681A6912F0080F12D009
:10145000DA6812F0080F0ED06FF008021A61042348
:1014600023772368DB6913F0030F4ED02046FFF784
:10147000B6FF0023237723681A6912F0100F12D0E9
:10148000DA6812F0100F0ED06FF010021A61082304
:1014900023772368DB6913F4407F3DD02046FFF7B4
:1014A0009EFF0023237723681A6912F0010F03D0EF
:1014B000DA6812F0010F36D123681A6912F0800F32
:1014C00003D0DA6812F0800F34D123681A6912F061
:1014D000400F03D0DA6812F0400F32D123681A6946
:1014E00012F0200F03D0DA6812F0200F30D110BDB7
:1014F000FFF774FF2046FFF773FF8AE72046FFF7E8
:101500006DFF2046FFF76CFF9BE72046FFF766FF65
:101510002046FFF765FFACE72046FFF75FFF204658
:10152000FFF75EFFBDE76FF001021A612046FEF78C
:1015300017FFC1E76FF080021A61204600F064F8DF
:10154000C3E76FF040021A612046FFF74AFFC5E784
:101550006FF020021A61204600F055F8C7E700003E
:1015600003681B4A90420AD0B0F1804F07D0A2F521
:101570009432904203D002F58062904203D123F06E
:1015800070034A681343124A90420AD0B0F1804F68
:1015900007D0A2F59432904203D002F580629042C7
:1015A00003D123F44073CA68134323F080034A69CC
:1015B000134303608B68C3620B688362044B9842D9
:1015C00002D00123436170470B690363F9E700BF51
:1015D000002C0140A8B110B5044690F83D305BB135
:1015E000022384F83D30211D2068FFF7B9FF012355
:1015F00084F83D30002010BD80F83C30FFF7DCFE61
:10160000EEE701207047704770470000EFF3058355
:101610009BB9EFF310839BB90C4B1B68022B05D0D1
:101620008BB90A4B01221A6000207047EFF3118238
:10163000002AF5D06FF0050070476FF00500704785
:101640006FF0050070474FF0FF3070472C0000200E
:1016500008B5EFF30583B3B9EFF31083B3B90E4BBD
:101660001B68022B08D0012B13D10B4B02221A60EE
:1016700000F02AFE002008BDEFF31182002AF2D00C
:101680006FF00500F7E76FF00500F4E76FF0050075
:10169000F1E74FF0FF30EEE72C000020F0B587B007
:1016A00000240494EFF305844CBBEFF3108333BBA9
:1016B000334B1B68022B25D008B300238DF817305D
:1016C00092B316681EB3946904B91824631E372BAD
:1016D00052D8536813F0010F50D15569D5B14FEA74
:1016E000950C93682BB1D7685B2F02D9176907B1A6
:1016F0000DBB93B14FF0FF35012D23D075B3049886
:1017000007B0F0BDEFF31183002BF8D1D4E70DF152
:101710001706D8E74FF0800CE3E7D3686BB913697D
:1017200073B14FF0FF35E7E7002518244FF0800C28
:101730000DF11706E0E70125DEE74FF0FF35DBE7A7
:101740000025D9E7136992680292019300940B4631
:101750006246314600F04CFD0490D0E704AA0192A5
:1017600000940B461FFA8CF2314600F07AFD0128F6
:10177000C5D000230493C2E70020C1E70020BFE7E3
:101780002C00002008B5EFF30583A3B9EFF3108315
:10179000A3B90C4B1B68022B02D040B9002008BD36
:1017A000EFF31183002BF8D06FF00500F7E700F09E
:1017B000DFFE0020F3E76FF00500F0E76FF00500B3
:1017C000EDE700BF2C00002010B4044B1C1D04608A
:1017D00060330B608023136010BC70472C00002026
:1017E00010B4064B03F51874046003F52F730B60F7
:1017F0004FF48073136010BC704700BF2C000020B2
:1018000000F1080343604FF0FF328260C360036160
:1018100000230360704700230361704743684B60F7
:101820009A688A609A685160996008610368013318
:101830000360704730B40D68B5F1FF3F02D000F18E
:10184000080202E0026904E01A4653681C68AC42D0
:10185000FAD953684B6099608A60516008610368E7
:101860000133036030BC704703694268816891604E
:101870008268416851605A68824206D00022026143
:101880001A68013A1A601868704782685A60F5E76A
:1018900010B5044601F06EFAA26BE36B9A4204D0D5
:1018A000002401F089FA204610BD0124F9E710B5A3
:1018B000044601F05FFAA36B23B1002401F07CFA27
:1018C000204610BD0124F9E770B504461646856B25
:1018D000026C5AB903681BB100200135A56370BDC5
:1018E000406800F091FF00236360F6E76EB98068FE
:1018F00001F0B6FC226CA3681344A36062689342B3
:1019000019D32368A3600020E7E7C06801F0A8FCB2
:10191000226C5242E3681344E36021688B4202D296
:1019200063681A44E260022E01D00020D5E725B199
:10193000013D0020D1E70020CFE70020CDE7026C79
:1019400072B110B5C3681344C3604468A34201D3A5
:101950000368C3600C46C168204601F081FC10BDDD
:10196000704738B5054601F005FA95F8454064B270
:1019700003E000F031FF013C64B2002C08DD6B6A2B
:1019800033B105F1240000F099FE0028F3D0F0E710
:10199000FF2385F8453001F00FFA01F0EBF995F8D7
:1019A000444064B203E000F017FF013C64B2002C35
:1019B00008DD2B6933B105F1100000F07FFE00282F
:1019C000F3D0F0E7FF2385F8443001F0F5F938BD96
:1019D00038B540B94FF0500383F31188BFF36F8FD0
:1019E000BFF34F8FFEE704460D4601F0C3F92168AF
:1019F000E26B236C03FB021060600020A063A16017
:101A0000013A02FB0313E360FF2384F8443084F8B7
:101A10004530A5B923691BB901F0CEF9012038BDC5
:101A200004F1100000F04AFE0028F5D0084B4FF0FA
:101A300080521A60BFF34F8FBFF36F8FECE704F152
:101A40001000FFF7DDFE04F12400FFF7D9FEE3E705
:101A500004ED00E038B51D46049C0B4649B12260F8
:101A6000E063236401212046FFF7B2FF84F84C5065
:101A700038BD2460F4E740B94FF0500383F3118878
:101A8000BFF36F8FBFF34F8FFEE710B584B00446EE
:101A900053B192B189B94FF0500383F31188BFF36A
:101AA0006F8FBFF34F8FFEE74FF0500383F3118822
:101AB000BFF36F8FBFF34F8FFEE74AB941B14FF0CD
:101AC000500383F31188BFF36F8FBFF34F8FFEE78F
:101AD000502003900398502808D04FF0500383F310
:101AE0001188BFF36F8FBFF34F8FFEE720461C4670
:101AF000012384F8463000949DF81830FFF7AAFFC0
:101B0000204604B010BD0000F0B585B0019260B170
:101B1000044699B9026C8AB14FF0500383F31188DF
:101B2000BFF36F8FBFF34F8FFEE74FF0500383F388
:101B30001188BFF36F8FBFF34F8FFEE7022B0BD1DE
:101B4000E26B012A08D04FF0500383F31188BFF3F2
:101B50006F8FBFF34F8FFEE71E460F4600F044FE27
:101B600050B9019B53B14FF0500383F31188BFF379
:101B70006F8FBFF34F8FFEE700253AE0002538E076
:101B8000324639462046FFF79FFE636A4BB9A8B13B
:101B90003B4B4FF080521A60BFF34F8FBFF36F8FF4
:101BA0000CE004F1240000F089FD38B1344B4FF013
:101BB00080521A60BFF34F8FBFF36F8F01F0FCF8B4
:101BC000012005B0F0BD01F0F7F80020F9E702A808
:101BD00000F0B8FD012519E0002384F8443021E02D
:101BE000002384F8453023E02046FFF7BAFE00F0DA
:101BF00047FC01F0BFF8A26BE36B9A42C0D3022E00
:101C0000BED0019B002BDED0002DE0D001F0D4F837
:101C100000F0A0FB01F0AEF894F844305BB2B3F1F1
:101C2000FF3FD9D094F845305BB2B3F1FF3FD7D036
:101C300001F0C2F801A902A800F08EFDC8B9204643
:101C4000FFF726FE0028CFD0019904F1100000F024
:101C5000FDFC2046FFF785FE00F012FC0028C8D1ED
:101C6000074B4FF080521A60BFF34F8FBFF36F8F57
:101C7000BFE72046FFF775FE00F002FC0020A0E75A
:101C800004ED00E02DE9F84360B1044699B9006C19
:101C900088B14FF0500383F31188BFF36F8FBFF308
:101CA0004F8FFEE74FF0500383F31188BFF36F8F20
:101CB000BFF34F8FFEE7022B0BD1E06B012808D05A
:101CC0004FF0500383F31188BFF36F8FBFF34F8F33
:101CD000FEE71F469046894601F038F9EFF311867A
:101CE0004FF0500383F31188BFF36F8FBFF34F8F13
:101CF000A26BE36B9A4203D3022F01D000200FE0C6
:101D000094F845506DB23A4649462046FFF7DCFD4F
:101D1000B5F1FF3F08D06B1C5BB284F84530012061
:101D200086F31188BDE8F883636A5BB104F124008F
:101D300000F0C4FC40B1B8F1000F07D00120C8F892
:101D40000000EDE70120EBE70120E9E70120E7E7EC
:101D5000F0B585B0019260B1044699B9036C8BB1BE
:101D60004FF0500383F31188BFF36F8FBFF34F8F92
:101D7000FEE74FF0500383F31188BFF36F8FBFF37B
:101D80004F8FFEE70F4600F02FFD50B9019B53B176
:101D90004FF0500383F31188BFF36F8FBFF34F8F62
:101DA000FEE700263EE000263CE039462046FFF7ED
:101DB000C6FD013DA563236923B900F0FDFF0120A5
:101DC00005B0F0BD04F1100000F078FC0028F4D05C
:101DD000344B4FF080521A60BFF34F8FBFF36F8FB9
:101DE000EBE700F0E9FF0020EAE702A800F0AAFC18
:101DF000012621E0002384F8443029E0002384F800
:101E000045302BE02046FFF7ACFD00F039FB09E040
:101E10002046FFF7A6FD00F033FB2046FFF747FD05
:101E200000283DD100F0A6FFA56B002DBDD1019B80
:101E3000002BD6D0002ED8D000F0BEFF00F08AFADA
:101E400000F098FF94F844305BB2B3F1FF3FD1D07B
:101E500094F845305BB2B3F1FF3FCFD000F0ACFF58
:101E600001A902A800F078FC0028D1D12046FFF794
:101E70001EFD0028C6D0019904F1240000F0E6FB05
:101E80002046FFF76EFD00F0FBFA0028CAD1054B93
:101E90004FF080521A60BFF34F8FBFF36F8FC1E7CF
:101EA00000208DE704ED00E00023072B0CD8074A43
:101EB00052F833200AB10133F7E7044A42F83310ED
:101EC00002EBC30358607047704700BFDC19002065
:101ED00070B504460D46164600F04CFF94F84430A9
:101EE0005BB2B3F1FF3F0DD094F845305BB2B3F174
:101EF000FF3F0BD000F060FFA36B5BB12046FFF704
:101F000030FD70BD002384F84430EDE7002384F8F1
:101F10004530EFE73246294604F1240000F0B0FBDB
:101F2000ECE70000074B9B6A1B6833B1054B9A6ACC
:101F3000D268D2685268DA627047024B4FF0FF32C3
:101F4000DA627047E80600202DE9F04781460D4629
:101F500017469A46089EDDF824800A9C9200A52127
:101F6000206B01F088F9236B07F18042013A03EB03
:101F7000820727F0070700230F2B07D8E95CE21838
:101F800082F83410EA5C0AB10133F5E7002384F8E3
:101F90004330372E00D93726E662E66400252565F2
:101FA000201DFFF738FC04F11800FFF734FC246112
:101FB000C6F13806A6616462656584F858505246D9
:101FC0004946384600F0AEFE2060B8F1000F01D05F
:101FD000C8F80040BDE8F08770B5002407E004EBC6
:101FE0008402930010481844FFF70AFC0134372C90
:101FF000F5D90E4C04F592663046FFF701FC04F269
:10200000A4452846FFF7FCFB04F11400FFF7F8FB9A
:1020100004F59760FFF7F4FB2046FFF7F1FBA6629B
:10202000C4F8CC5470BD00BF18070020E80600209B
:1020300038B5044600F09EFE274BD3F8D024013279
:10204000C3F8D024D3F8D43473B1234BD3F8D834A5
:102050008BB9214BD3F8D434DA6AE36A9A420AD8AE
:102060001D4BC3F8D44406E01B4BC3F8D444D3F84B
:10207000D034012B2CD0184AD2F8DC340133C2F80A
:10208000DC346364E36AD2F8E024934202D9124A52
:10209000C2F8E034104D05F1300003EB83039A00E1
:1020A000211D1044FFF7BAFB00F086FED5F8D834A6
:1020B0006BB1D5F8D434DA6AE36A9A4207D2074B97
:1020C0004FF080521A60BFF34F8FBFF36F8F38BD50
:1020D000FFF782FFCFE700BFE806002004ED00E035
:1020E00010B5044690F8593033B9006B01F036F85A
:1020F000204601F033F810BD012B0AD0022BFAD094
:102100004FF0500383F31188BFF36F8FBFF34F8FEE
:10211000FEE701F023F8EEE738B517E000F02AFEFD
:102120000D4CD4F8C434DD68281DFFF79DFBD4F8AE
:10213000D034013BC4F8D034D4F8E434013BC4F8C3
:10214000E43400F039FE2846FFF7CAFF024BD3F80B
:10215000E434002BE2D138BDE806002008B5FFF7D3
:10216000DBFF064B1B6B012BF9D9054B4FF080525F
:102170001A60BFF34F8FBFF36F8FF0E7E8060020C0
:1021800004ED00E070B504460E46184BD3F8E85451
:10219000D3F8D4040430FFF767FBB4F1FF3F12D04B
:1021A0002C44124BD3F8D4345C60A54214D80F4DA4
:1021B000A86AD5F8D4140431FFF73CFBEB6AA342BC
:1021C00012D9EC6210E0002EEAD00848D0F8D414FE
:1021D0000431FFF723FB07E0044BD3F8CC04D3F81A
:1021E000D4140431FFF726FB70BD00BFE8060020C1
:1021F00070B586B00B9D0C9C45B94FF0500383F32E
:102200001188BFF36F8FBFF34F8FFEE744B94FF0D4
:10221000500383F31188BFF36F8FBFF34F8FFEE737
:102220005C260496049E5C2E08D04FF0500383F386
:102230001188BFF36F8FBFF34F8FFEE72563022531
:1022400084F8595000250395029405AD01950A9D27
:102250000095FFF779FE2046FFF7EAFE059806B0E5
:1022600070BD2DE9F04385B007468846154699466E
:10227000900000F0EDFE08B306465C2000F0E8FE9A
:102280000446B8B10663E4B1002384F859300393DF
:1022900002940D9B01930C9B00934B462A464146AA
:1022A0003846FFF751FE2046FFF7C2FE012005B079
:1022B000BDE8F083304600F051FFE4E74FF0FF3017
:1022C000F5E74FF0FF30F2E710B588B00024059431
:1022D000069407AA06A905A8FFF776FA059B0293BC
:1022E000069B019300942346079A17491748FFF766
:1022F0007FFF40B100F030FB012806D0B0F1FF3F76
:1023000018D008B010BD0020F6E74FF0500383F35B
:102310001188BFF36F8FBFF34F8F0D4B4FF0FF321C
:10232000DA620122C3F8D8240022C3F8E82400F0BE
:10233000B3FDE6E74FF0500383F31188BFF36F8FCF
:10234000BFF34F8FFEE700BFEC3200085D210008AD
:10235000E8060020034AD2F8EC340133C2F8EC342A
:10236000704700BFE8060020014BD3F8E80470472F
:10237000E80600202DE9F041404BD3F8EC34002B67
:102380006DD13E4BD3F8E8540135C3F8E854CDB9CC
:102390009B6A1B6843B14FF0500383F31188BFF36E
:1023A0006F8FBFF34F8FFEE7344B9A6AD3F8CC148C
:1023B0009962C3F8CC24D3F8F0240132C3F8F02496
:1023C000FFF7B0FD2D4BDB6AAB423ED900242B4A10
:1023D000D2F8D434DB6A03EB830399000A44136B0D
:1023E000012B43D9012441E00124244B9B6A1B6843
:1023F0006BB3224B9B6ADB68DE6873689D422BD30C
:1024000006F104084046FFF72FFAB36A1BB106F144
:102410001800FFF729FAF36A184AD2F8E024934229
:1024200002D9164AC2F8E034144F07F1300003EB2A
:1024300083039A0041461044FFF7F0F9F26AD7F897
:10244000D434DB6A9A42CFD2CFE70024CDE70B4BDE
:102450004FF0FF32DA62BAE7084AD362B7E7074AB9
:10246000D2F8F4340133C2F8F4340024034BD3F827
:10247000F83403B101242046BDE8F081E8060020CD
:10248000394BD3F8EC3443B94FF0500383F3118840
:10249000BFF36F8FBFF34F8FFEE770B500F06AFC9C
:1024A000314BD3F8EC24013AC3F8EC24D3F8EC34E4
:1024B000002B54D12C4BD3F8D03423B9002400F096
:1024C0007BFC204670BD0024274B5B692BB3264D57
:1024D0002B6ADC6804F11800FFF7C6F9261D3046A8
:1024E000FFF7C2F9E36AD5F8E024934201D9C5F8B1
:1024F000E0341D4D05F1300003EB83039A003146B3
:102500001044FFF78BF9E26AD5F8D434DB6A9A42BB
:10251000DAD30122C5F8F824D6E70CB1FFF702FDA3
:10252000114BD3F8F44464B1FFF724FF18B10E4BFC
:102530000122C3F8F824013CF6D10B4B0022C3F86A
:10254000F424094BD3F8F8345BB1084B4FF08052B8
:102550001A60BFF34F8FBFF36F8F0124AFE70024E2
:10256000ADE70024ABE700BFE806002004ED00E083
:1025700010B5B0B104460F4BD3F8EC3443B14FF073
:10258000500383F31188BFF36F8FBFF34F8FFEE7C4
:10259000FFF7E0FE00212046FFF7F4FDFFF770FF94
:1025A00038B9054B4FF080521A60BFF34F8FBFF31D
:1025B0006F8F10BDE806002004ED00E0224BD3F839
:1025C000EC3423B1204B0122C3F8F82470471E4B92
:1025D0000022C3F8F824D3F8E03403EB830291001F
:1025E000194A0A44126B5AB90BB1013BF5E74FF097
:1025F000500383F31188BFF36F8FBFF34F8FFEE754
:1026000010B4114A9900CC18A0001044446B6468BF
:1026100044633032194488000830024494420CD09C
:10262000094903EB830082000A44526BD268C1F867
:10263000D424C1F8E03410BC704761680248142209
:1026400002FB03025163EBE7E806002040B94FF0BC
:10265000500383F31188BFF36F8FBFF34F8FFEE7F3
:1026600010B50C46054BD3F8D4141831FFF7E2F837
:1026700001212046FFF786FD10BD00BFE8060020BF
:1026800038B540B94FF0500383F31188BFF36F8F13
:10269000BFF34F8FFEE70C461546074AD2F8D41415
:1026A0001831FFF7BBF80DB14FF0FF342946204633
:1026B000FFF768FD38BD00BFE806002038B5C368E5
:1026C000DC6844B94FF0500383F31188BFF36F8F78
:1026D000BFF34F8FFEE704F118052846FFF7C4F853
:1026E000154BD3F8EC3403BB251D2846FFF7BCF887
:1026F000E36A114AD2F8E024934202D90E4AC2F8A2
:10270000E03403EB83039A0029460C481044FFF79A
:1027100085F8E26A084BD3F8D434DB6A9A4209D9C7
:102720000120054BC3F8F80438BD29460448FFF7DB
:1027300075F8EEE70020F7E7E8060020180700200C
:10274000FC060020034BD3F8F0240260D3F8E834F1
:1027500043607047E8060020F8B550B1054689B9D6
:102760004FF0500383F31188BFF36F8FBFF34F8F88
:10277000FEE74FF0500383F31188BFF36F8FBFF371
:102780004F8FFEE70C4600F0F5FA124BD3F8E81431
:1027900068680A1A2368B3F1FF3F17D02F680D4EFF
:1027A000D6F8F064B74201D0884211D9934203D8D9
:1027B00000232360012405E09B1A23602846FFF7CD
:1027C000C1FF002400F0F8FA2046F8BD0024F9E724
:1027D0000124F7E7E8060020024B0122C3F8F824A1
:1027E000704700BFE8060020064BD3F8D8343BB151
:1027F000044BD3F8EC340BB1002070470220704733
:1028000001207047E806002000283BD038B5044678
:102810001F4AD2F8D424824208D04FF0500383F3E9
:102820001188BFF36F8FBFF34F8FFEE7026D42B980
:102830004FF0500383F31188BFF36F8FBFF34F8FB7
:10284000FEE7013A0265C06AE16C88421CD0EAB931
:10285000251D2846FFF708F8E36CE362C3F1380250
:10286000A2610B4AD2F8E024934202D9084AC2F886
:10287000E0342946074A142000FB0320FEF7CEFF70
:10288000012038BD002070470020FAE70020F8E75B
:10289000E806002018070020064B1A681368B3FAF0
:1028A00083F35B09036013B9D3681868704700208D
:1028B000704700BFE40B002008B541600061914201
:1028C0000CD8D21A83699A4201D3012010E0011D6D
:1028D000094B5868FEF7AEFF002009E09A4201D28A
:1028E000994206D2011D044B1868FEF7A3FF002091
:1028F00008BD0120FCE700BFE40B002070B582B0EA
:1029000000F038FA124B9B681BB100F055FA02B088
:1029100070BD0F4C04F10C063046FEF771FF04F158
:1029200020052846FEF76CFF2660656000230093B3
:1029300004F1340304F1840210210A20FFF79BF80C
:10294000A0600028E1D00349FFF7AEFADDE700BF41
:10295000E40B0020F432000810B588B0FFF7CEFF7A
:10296000134B9B68D3B100240594069407AA06A9CB
:1029700005A8FEF735FF059B0293069B01930223F2
:1029800000932346079A0B490B48FFF731FC084B8D
:10299000C3F8240110B1012008B010BD4FF050035E
:1029A00083F31188BFF36F8FBFF34F8FFEE700BF34
:1029B000E40B0020FC320008AD2C0008C8B130B593
:1029C00085B015460446174A906840B31A460091F0
:1029D0000195029405291DDCFFF706FF022811D09E
:1029E00000231A4669460F488068FFF78DF805B046
:1029F00030BD4FF0500383F31188BFF36F8FBFF3E7
:102A00004F8FFEE70023089A694606488068FFF763
:102A10007BF8ECE700236946FFF734F9E7E700208D
:102A2000E5E700BFE40B0020204B1B681A68002A72
:102A300037D070B582B0DB681E68DC68251D28467B
:102A4000FEF712FF636A20469847E369012B0AD01C
:102A5000164B1B681A68002AEDD1144A51681160A0
:102A6000536002B070BDA36933449E4207D26360D5
:102A7000246129460D4B1868FEF7DCFEE8E70021CB
:102A800000910B4632462046FFF798FF0028DFD121
:102A90004FF0500383F31188BFF36F8FBFF34F8F55
:102AA000FEE7024A5168116053607047E40B002052
:102AB00038B50546FFF758FC0446084BD3F82831D3
:102AC000834206D800232B60044BC3F828412046DC
:102AD00038BDFFF7A9FF01232B60F5E7E40B0020C9
:102AE00070B582B005460E46144B1B68DB68DC6887
:102AF000201DFEF7B9FEE369012B04D0636A20466E
:102B0000984702B070BDA1692B4632462944204641
:102B1000FFF7D2FE0028F1D0002100910B462A4693
:102B20002046FFF74BFF0028E8D14FF0500383F316
:102B30001188BFF36F8FBFF34F8FFEE7E40B0020C8
:102B400070B582B006460C46FFF704FC01A8FFF7FB
:102B5000AFFF019B1BBB05460CB9B04218D22CB18C
:102B6000114B5B681C68B4FA84F464092246711B3B
:102B70000D4B9868FFF7ACF9FFF782FC88B90B4B57
:102B80004FF080521A60BFF34F8FBFF36F8F08E092
:102B9000FFF776FC29463046FFF7A2FF01E0FFF77A
:102BA0006FFC02B070BD00BFE40B002004ED00E03C
:102BB00030B589B002E0049B002B0FDA002204A993
:102BC000394B9868FFF7C4F800286AD0049B002BA3
:102BD000F1DA07990698059B9847ECE7069C63692C
:102BE00013B1201DFEF740FE03A8FFF761FF049B11
:102BF000092BE3D801A252F823F000BF252C0008CE
:102C0000252C0008252C0008BD2B00086D2C000881
:102C1000932C0008252C0008252C0008BD2B00084B
:102C20006D2C00080599A5690B46024629442046EB
:102C3000FFF742FE0028C1D0636A20469847E36947
:102C4000012BBBD1A269002100910B4605980244DB
:102C50002046FFF7B3FE0028B0D14FF0500383F3B6
:102C60001188BFF36F8FBFF34F8FFEE70599A16106
:102C700031B10346024601442046FFF71DFE9DE7A1
:102C80004FF0500383F31188BFF36F8FBFF34F8F63
:102C9000FEE794F82C30002B90D1204600F05EFA2D
:102CA0008CE709B030BD00BFE40B002000B583B055
:102CB00001A8FFF7F1FD0199FFF742FFFFF778FF49
:102CC000F6E7000082B0002301930D4B1B68B3F1BF
:102CD000FF3F08D04FF0500383F31188BFF36F8F8D
:102CE000BFF34F8FFEE74FF0500383F31188BFF31C
:102CF0006F8FBFF34F8F019B002BFCD002B070474A
:102D00000C00002006480068006880F3088862B65E
:102D100061B6BFF34F8FBFF36F8F00DF00BF0000BE
:102D200008ED00E04FF0807340F8043C21F0010111
:102D300040F8081C034B40F80C3C40F8202C40386D
:102D4000704700BFC52C0008000000000000000014
:102D5000074B19680868B0E8F00F80F30988BFF3E3
:102D60006F8F4FF0000080F311884EF00D0E70470A
:102D7000BC0B00204FF0500383F31188BFF36F8F1B
:102D8000BFF34F8F0A4A136801331360012B00D041
:102D90007047084B1B6813F0FF0FF9D04FF050033A
:102DA00083F31188BFF36F8FBFF34F8FFEE700BF30
:102DB0000C00002004ED00E0094B1B6843B94FF004
:102DC000500383F31188BFF36F8FBFF34F8FFEE77C
:102DD000013B034A13600BB983F31188704700BFAE
:102DE0000C000020000000000000000000000000B7
:102DF000EFF30980BFF36F8F0D4B1A6820E9F00FD6
:102E000010602DE908404FF0500080F31188FFF763
:102E1000D5FB4FF0000080F31188BDE80840196829
:102E20000868B0E8F00F80F30988BFF36F8F704730
:102E3000BC0B002008B54FF0500383F31188BFF39B
:102E40006F8FBFF34F8FFFF795FA18B1034B4FF019
:102E500080521A60002383F3118808BD04ED00E05E
:102E6000084A0023136008490B60084B1B68084997
:102E7000A1FB03139B09013B06490B600723136069
:102E8000704700BF10E000E018E000E00000002004
:102E9000D34D621014E000E010B582B0274B1A78D1
:102EA000D2B20192FF221A701B78DBB28DF8033088
:102EB0009DF8033003F05003214A13700723536039
:102EC00009E01F4A5368013B53609DF803305B00E3
:102ED000DBB28DF803309DF8033013F0800FF0D192
:102EE000174B5B68032B08D04FF0500383F3118816
:102EF000BFF36F8FBFF34F8FFEE71B0203F4E06356
:102F00000F4A5360019BDBB20C4A13700D4B1A68D9
:102F100042F470021A601A6842F070421A60FFF7B9
:102F20009FFF0024084B1C60FFF7ECFEFFF746FBF9
:102F3000FFF7C8FE204602B010BD00BF00E400E06D
:102F4000100D002020ED00E00C000020EFF30583C1
:102F50000F2B0FD9104A9B5CDBB2104A12789A42B1
:102F600008D94FF0500383F31188BFF36F8FBFF37D
:102F70004F8FFEE70A4B1B6803F4E063074A526871
:102F8000934208D94FF0500383F31188BFF36F8F3A
:102F9000BFF34F8FFEE77047F0E300E0100D002015
:102FA0000CED00E0134A12F0070F20D0D11D21F0E4
:102FB0000701C1F5406313440A460E49C1F8002CCD
:102FC0000020C1F8040C1344083B23F00703C1F8A8
:102FD000083C58601860981A50601360C1F80C0CD7
:102FE000C1F8100C4FF00043C1F8143C70474FF487
:102FF0004063E2E7180D002010B4134B1A688242B8
:103000001BD359685C18844203D14068014459605D
:10301000184641684418A24213D10C4CD4F8084C0D
:10302000A2420CD05268114441601A6812680260D2
:10303000984200D0186010BC70471346DEE7046069
:10304000F6E70260F4E700BF18190020180D002011
:1030500070B50446FFF77EF93F4BD3F8083CC3B187
:103060003D4BD3F8143C1C426CD1ACB1083414F085
:10307000070F11D024F00704083404F007035BB1F4
:103080004FF0500383F31188BFF36F8FBFF34F8F5F
:10309000FEE7FFF787FFE3E7002C55D02E4BD3F870
:1030A000103CA34252D32C4BD3F8005C03F5406391
:1030B00001E02B4615466A68A24202D22A68002A1D
:1030C000F7D1254AD2F8082CAA4241D01E6808360A
:1030D0002A681A606B681B1B102B10D9281910F076
:1030E000070F08D04FF0500383F31188BFF36F8FA1
:1030F000BFF34F8FFEE743606C60FFF77DFF6968A9
:10310000154AD2F8103C5B1AC2F8103CD2F80C2CCD
:10311000934202D2104AC2F80C3C0F4BD3F8143C35
:103120000B436B6000232B60FFF7AAF916F0070F23
:1031300010D04FF0500383F31188BFF36F8FBFF3AC
:103140004F8FFEE70026EFE70026EDE70026EBE7CE
:103150000026E9E7304670BD180D002098B338B559
:103160000446A0F1080550F8042C1749D1F8141CA6
:103170000A4208D14FF0500383F31188BFF36F8FD9
:10318000BFF34F8FFEE750F8080C40B14FF05003EB
:1031900083F31188BFF36F8FBFF34F8FFEE722EAEF
:1031A000010244F8042CFFF7D5F854F8041C064A31
:1031B000D2F8103C0B44C2F8103C2846FFF71CFF25
:1031C000FFF75EF938BD7047180D0020002103E0BD
:1031D0000B4B5B58435004310A480B4B42189A4240
:1031E000F6D30A4A02E0002342F8043B084B9A4215
:1031F000F9D3FDF79FF900F00FF8FDF743F870479A
:103200000C330008000000201000002010000020F7
:103210001C1A0020FEE7000070B500250C4E0D4C76
:10322000A41BA410A54209D100F02EF800250A4ED7
:103230000A4CA41BA410A54205D170BD56F8253038
:1032400098470135EEE756F8253098470135F2E703
:10325000043300080433000804330008083300086E
:1032600010B5431E0A44914200D110BD11F8014B24
:1032700003F8014FF7E703460244934200D1704739
:1032800003F8011BF9E70000F8B500BFF8BC08BC63
:103290009E467047F8B500BFF8BC08BC9E46704714
:1032A00000000000000000000102030406070809F6
:1032B00000000000010203040203040506070809D8
:1032C0000A0B0C0D0E0F1010010200006465666100
:1032D000756C745461736B0043414E004C4544530C
:1032E0007472697073000000444D530049444C45AA
:1032F00000000000546D725100000000546D7220F7
:04330000537663009D
:043304003501000887
:0433080011010008A7
:10330C000024F4000100000010000000AAAAAAAAE0
:04000005080031CDF1
:00000001FF
